{
  "_format": "hh-sol-artifact-1",
  "contractName": "Ico",
  "sourceName": "contracts/Ico.sol",
  "abi": [
    {
      "inputs": [
        {
          "internalType": "contract WETH9",
          "name": "_weth",
          "type": "address"
        }
      ],
      "stateMutability": "nonpayable",
      "type": "constructor"
    },
    {
      "inputs": [],
      "name": "claim",
      "outputs": [],
      "stateMutability": "nonpayable",
      "type": "function"
    },
    {
      "inputs": [
        {
          "internalType": "address",
          "name": "account",
          "type": "address"
        }
      ],
      "name": "claimableAmount",
      "outputs": [
        {
          "internalType": "uint256",
          "name": "",
          "type": "uint256"
        }
      ],
      "stateMutability": "view",
      "type": "function"
    },
    {
      "inputs": [
        {
          "internalType": "uint256",
          "name": "amount",
          "type": "uint256"
        }
      ],
      "name": "invest",
      "outputs": [],
      "stateMutability": "nonpayable",
      "type": "function"
    },
    {
      "inputs": [],
      "name": "remaining",
      "outputs": [
        {
          "internalType": "uint256",
          "name": "",
          "type": "uint256"
        }
      ],
      "stateMutability": "view",
      "type": "function"
    },
    {
      "inputs": [],
      "name": "scm",
      "outputs": [
        {
          "internalType": "contract Scam",
          "name": "",
          "type": "address"
        }
      ],
      "stateMutability": "view",
      "type": "function"
    },
    {
      "inputs": [],
      "name": "weth",
      "outputs": [
        {
          "internalType": "contract WETH9",
          "name": "",
          "type": "address"
        }
      ],
      "stateMutability": "view",
      "type": "function"
    },
    {
      "inputs": [
        {
          "internalType": "address",
          "name": "account",
          "type": "address"
        }
      ],
      "name": "wethAllowance",
      "outputs": [
        {
          "internalType": "uint256",
          "name": "",
          "type": "uint256"
        }
      ],
      "stateMutability": "view",
      "type": "function"
    },
    {
      "inputs": [],
      "name": "wethInvested",
      "outputs": [
        {
          "internalType": "uint256",
          "name": "",
          "type": "uint256"
        }
      ],
      "stateMutability": "view",
      "type": "function"
    },
    {
      "inputs": [],
      "name": "wethLimit",
      "outputs": [
        {
          "internalType": "uint256",
          "name": "",
          "type": "uint256"
        }
      ],
      "stateMutability": "view",
      "type": "function"
    }
  ],
  "bytecode": "0x608060405268056bc75e2d63100000600355600060045560026005556201518060065560006007556000600855600a6009553480156200003e57600080fd5b506040516200290c3803806200290c8339818101604052810190620000649190620001cf565b6040516200007290620001aa565b604051809103906000f0801580156200008f573d6000803e3d6000fd5b506000806101000a81548173ffffffffffffffffffffffffffffffffffffffff021916908373ffffffffffffffffffffffffffffffffffffffff16021790555080600160006101000a81548173ffffffffffffffffffffffffffffffffffffffff021916908373ffffffffffffffffffffffffffffffffffffffff1602179055506000600160146101000a81548160ff021916908360018111156200015d577f4e487b7100000000000000000000000000000000000000000000000000000000600052602160045260246000fd5b021790555033600260006101000a81548173ffffffffffffffffffffffffffffffffffffffff021916908373ffffffffffffffffffffffffffffffffffffffff160217905550506200025d565b61178b806200118183390190565b600081519050620001c98162000243565b92915050565b600060208284031215620001e257600080fd5b6000620001f284828501620001b8565b91505092915050565b6000620002088262000223565b9050919050565b60006200021c82620001fb565b9050919050565b600073ffffffffffffffffffffffffffffffffffffffff82169050919050565b6200024e816200020f565b81146200025a57600080fd5b50565b610f14806200026d6000396000f3fe608060405234801561001057600080fd5b50600436106100935760003560e01c80634e71d92d116100665780634e71d92d1461012057806355234ec01461012a578063773a6c4f146101485780638988504914610166578063db9154811461019657610093565b80632afcf480146100985780633fc8cef3146100b457806346868767146100d257806346e511b714610102575b600080fd5b6100b260048036038101906100ad919061093d565b6101b4565b005b6100bc6104ac565b6040516100c99190610bef565b60405180910390f35b6100ec60048036038101906100e791906108eb565b6104d2565b6040516100f99190610cca565b60405180910390f35b61010a610588565b6040516101179190610cca565b60405180910390f35b61012861058e565b005b610132610800565b60405161013f9190610cca565b60405180910390f35b610150610817565b60405161015d9190610cca565b60405180910390f35b610180600480360381019061017b91906108eb565b61081d565b60405161018d9190610cca565b60405180910390f35b61019e610873565b6040516101ab9190610bd4565b60405180910390f35b600060018111156101ee577f4e487b7100000000000000000000000000000000000000000000000000000000600052602160045260246000fd5b600160149054906101000a900460ff166001811115610236577f4e487b7100000000000000000000000000000000000000000000000000000000600052602160045260246000fd5b14610276576040517f08c379a000000000000000000000000000000000000000000000000000000000815260040161026d90610c2a565b60405180910390fd5b80610280336104d2565b10156102c1576040517f08c379a00000000000000000000000000000000000000000000000000000000081526004016102b890610caa565b60405180910390fd5b6102c9610800565b8111156102db576102d8610800565b90505b80600460008282546102ed9190610cf6565b92505081905550600160009054906101000a900473ffffffffffffffffffffffffffffffffffffffff1673ffffffffffffffffffffffffffffffffffffffff166323b872dd33600260009054906101000a900473ffffffffffffffffffffffffffffffffffffffff16846040518463ffffffff1660e01b815260040161037593929190610b74565b602060405180830381600087803b15801561038f57600080fd5b505af11580156103a3573d6000803e3d6000fd5b505050506040513d601f19601f820116820180604052508101906103c79190610914565b5080600a60003373ffffffffffffffffffffffffffffffffffffffff1673ffffffffffffffffffffffffffffffffffffffff16815260200190815260200160002060008282546104179190610cf6565b925050819055506000610428610800565b14156104a95760018060146101000a81548160ff02191690836001811115610479577f4e487b7100000000000000000000000000000000000000000000000000000000600052602160045260246000fd5b02179055506005544261048c9190610cf6565b6007819055506006546007546104a29190610cf6565b6008819055505b50565b600160009054906101000a900473ffffffffffffffffffffffffffffffffffffffff1681565b6000600160009054906101000a900473ffffffffffffffffffffffffffffffffffffffff1673ffffffffffffffffffffffffffffffffffffffff1663dd62ed3e83306040518363ffffffff1660e01b8152600401610531929190610b4b565b60206040518083038186803b15801561054957600080fd5b505afa15801561055d573d6000803e3d6000fd5b505050506040513d601f19601f820116820180604052508101906105819190610966565b9050919050565b60035481565b600060018111156105c8577f4e487b7100000000000000000000000000000000000000000000000000000000600052602160045260246000fd5b600160149054906101000a900460ff166001811115610610577f4e487b7100000000000000000000000000000000000000000000000000000000600052602160045260246000fd5b1415610651576040517f08c379a000000000000000000000000000000000000000000000000000000000815260040161064890610c6a565b60405180910390fd5b426007541115610696576040517f08c379a000000000000000000000000000000000000000000000000000000000815260040161068d90610c8a565b60405180910390fd5b6008544211156106db576040517f08c379a00000000000000000000000000000000000000000000000000000000081526004016106d290610c4a565b60405180910390fd5b60006106e63361081d565b90506000811161072b576040517f08c379a000000000000000000000000000000000000000000000000000000000815260040161072290610c0a565b60405180910390fd5b6000600a60003373ffffffffffffffffffffffffffffffffffffffff1673ffffffffffffffffffffffffffffffffffffffff1681526020019081526020016000208190555060008054906101000a900473ffffffffffffffffffffffffffffffffffffffff1673ffffffffffffffffffffffffffffffffffffffff166340c10f1933836040518363ffffffff1660e01b81526004016107cb929190610bab565b600060405180830381600087803b1580156107e557600080fd5b505af11580156107f9573d6000803e3d6000fd5b5050505050565b60006004546003546108129190610da6565b905090565b60045481565b6000600954600a60008473ffffffffffffffffffffffffffffffffffffffff1673ffffffffffffffffffffffffffffffffffffffff1681526020019081526020016000205461086c9190610d4c565b9050919050565b60008054906101000a900473ffffffffffffffffffffffffffffffffffffffff1681565b6000813590506108a681610e99565b92915050565b6000815190506108bb81610eb0565b92915050565b6000813590506108d081610ec7565b92915050565b6000815190506108e581610ec7565b92915050565b6000602082840312156108fd57600080fd5b600061090b84828501610897565b91505092915050565b60006020828403121561092657600080fd5b6000610934848285016108ac565b91505092915050565b60006020828403121561094f57600080fd5b600061095d848285016108c1565b91505092915050565b60006020828403121561097857600080fd5b6000610986848285016108d6565b91505092915050565b61099881610dda565b82525050565b6109a781610e22565b82525050565b6109b681610e46565b82525050565b60006109c9601083610ce5565b91507f6e6f7468696e6720746f20636c61696d000000000000000000000000000000006000830152602082019050919050565b6000610a09601a83610ce5565b91507f696e766573746d656e7420706861736520697320636c6f7365640000000000006000830152602082019050919050565b6000610a49601683610ce5565b91507f636c61696d696e67207068617365206973206f766572000000000000000000006000830152602082019050919050565b6000610a89601e83610ce5565b91507f696e766573746d656e74207068617365206973207374696c6c206f70656e00006000830152602082019050919050565b6000610ac9601e83610ce5565b91507f636c61696d696e67207068617365206973206e6f7420796574206f70656e00006000830152602082019050919050565b6000610b09601b83610ce5565b91507f696e73756666696369656e74205745544820616c6c6f77616e636500000000006000830152602082019050919050565b610b4581610e18565b82525050565b6000604082019050610b60600083018561098f565b610b6d602083018461098f565b9392505050565b6000606082019050610b89600083018661098f565b610b96602083018561098f565b610ba36040830184610b3c565b949350505050565b6000604082019050610bc0600083018561098f565b610bcd6020830184610b3c565b9392505050565b6000602082019050610be9600083018461099e565b92915050565b6000602082019050610c0460008301846109ad565b92915050565b60006020820190508181036000830152610c23816109bc565b9050919050565b60006020820190508181036000830152610c43816109fc565b9050919050565b60006020820190508181036000830152610c6381610a3c565b9050919050565b60006020820190508181036000830152610c8381610a7c565b9050919050565b60006020820190508181036000830152610ca381610abc565b9050919050565b60006020820190508181036000830152610cc381610afc565b9050919050565b6000602082019050610cdf6000830184610b3c565b92915050565b600082825260208201905092915050565b6000610d0182610e18565b9150610d0c83610e18565b9250827fffffffffffffffffffffffffffffffffffffffffffffffffffffffffffffffff03821115610d4157610d40610e6a565b5b828201905092915050565b6000610d5782610e18565b9150610d6283610e18565b9250817fffffffffffffffffffffffffffffffffffffffffffffffffffffffffffffffff0483118215151615610d9b57610d9a610e6a565b5b828202905092915050565b6000610db182610e18565b9150610dbc83610e18565b925082821015610dcf57610dce610e6a565b5b828203905092915050565b6000610de582610df8565b9050919050565b60008115159050919050565b600073ffffffffffffffffffffffffffffffffffffffff82169050919050565b6000819050919050565b6000610e2d82610e34565b9050919050565b6000610e3f82610df8565b9050919050565b6000610e5182610e58565b9050919050565b6000610e6382610df8565b9050919050565b7f4e487b7100000000000000000000000000000000000000000000000000000000600052601160045260246000fd5b610ea281610dda565b8114610ead57600080fd5b50565b610eb981610dec565b8114610ec457600080fd5b50565b610ed081610e18565b8114610edb57600080fd5b5056fea26469706673582212207ccf39a4bd945600b5c90064f349f6c3afe8f0067e43d5d6331acdd5e48763a364736f6c6343000800003360806040523480156200001157600080fd5b506040518060400160405280600481526020017f5363616d000000000000000000000000000000000000000000000000000000008152506040518060400160405280600381526020017f53434d0000000000000000000000000000000000000000000000000000000000815250816003908051906020019062000096929190620000f9565b508060049080519060200190620000af929190620000f9565b50505033600560006101000a81548173ffffffffffffffffffffffffffffffffffffffff021916908373ffffffffffffffffffffffffffffffffffffffff1602179055506200020e565b8280546200010790620001a9565b90600052602060002090601f0160209004810192826200012b576000855562000177565b82601f106200014657805160ff191683800117855562000177565b8280016001018555821562000177579182015b828111156200017657825182559160200191906001019062000159565b5b5090506200018691906200018a565b5090565b5b80821115620001a55760008160009055506001016200018b565b5090565b60006002820490506001821680620001c257607f821691505b60208210811415620001d957620001d8620001df565b5b50919050565b7f4e487b7100000000000000000000000000000000000000000000000000000000600052602260045260246000fd5b61156d806200021e6000396000f3fe608060405234801561001057600080fd5b50600436106100cf5760003560e01c806340c10f191161008c57806395d89b411161006657806395d89b4114610228578063a457c2d714610246578063a9059cbb14610276578063dd62ed3e146102a6576100cf565b806340c10f19146101be57806370a08231146101da5780638da5cb5b1461020a576100cf565b806306fdde03146100d4578063095ea7b3146100f257806318160ddd1461012257806323b872dd14610140578063313ce56714610170578063395093511461018e575b600080fd5b6100dc6102d6565b6040516100e991906111f6565b60405180910390f35b61010c60048036038101906101079190610deb565b610368565b60405161011991906111db565b60405180910390f35b61012a61038b565b6040516101379190611338565b60405180910390f35b61015a60048036038101906101559190610d9c565b610395565b60405161016791906111db565b60405180910390f35b6101786103c4565b6040516101859190611353565b60405180910390f35b6101a860048036038101906101a39190610deb565b6103cd565b6040516101b591906111db565b60405180910390f35b6101d860048036038101906101d39190610deb565b610404565b005b6101f460048036038101906101ef9190610d37565b6104a2565b6040516102019190611338565b60405180910390f35b6102126104ea565b60405161021f91906111c0565b60405180910390f35b610230610510565b60405161023d91906111f6565b60405180910390f35b610260600480360381019061025b9190610deb565b6105a2565b60405161026d91906111db565b60405180910390f35b610290600480360381019061028b9190610deb565b610619565b60405161029d91906111db565b60405180910390f35b6102c060048036038101906102bb9190610d60565b61063c565b6040516102cd9190611338565b60405180910390f35b6060600380546102e590611468565b80601f016020809104026020016040519081016040528092919081815260200182805461031190611468565b801561035e5780601f106103335761010080835404028352916020019161035e565b820191906000526020600020905b81548152906001019060200180831161034157829003601f168201915b5050505050905090565b6000806103736106c3565b90506103808185856106cb565b600191505092915050565b6000600254905090565b6000806103a06106c3565b90506103ad858285610896565b6103b8858585610922565b60019150509392505050565b60006012905090565b6000806103d86106c3565b90506103f98185856103ea858961063c565b6103f4919061138a565b6106cb565b600191505092915050565b600560009054906101000a900473ffffffffffffffffffffffffffffffffffffffff1673ffffffffffffffffffffffffffffffffffffffff163373ffffffffffffffffffffffffffffffffffffffff1614610494576040517f08c379a000000000000000000000000000000000000000000000000000000000815260040161048b90611298565b60405180910390fd5b61049e8282610ba3565b5050565b60008060008373ffffffffffffffffffffffffffffffffffffffff1673ffffffffffffffffffffffffffffffffffffffff168152602001908152602001600020549050919050565b600560009054906101000a900473ffffffffffffffffffffffffffffffffffffffff1681565b60606004805461051f90611468565b80601f016020809104026020016040519081016040528092919081815260200182805461054b90611468565b80156105985780601f1061056d57610100808354040283529160200191610598565b820191906000526020600020905b81548152906001019060200180831161057b57829003601f168201915b5050505050905090565b6000806105ad6106c3565b905060006105bb828661063c565b905083811015610600576040517f08c379a00000000000000000000000000000000000000000000000000000000081526004016105f7906112f8565b60405180910390fd5b61060d82868684036106cb565b60019250505092915050565b6000806106246106c3565b9050610631818585610922565b600191505092915050565b6000600160008473ffffffffffffffffffffffffffffffffffffffff1673ffffffffffffffffffffffffffffffffffffffff16815260200190815260200160002060008373ffffffffffffffffffffffffffffffffffffffff1673ffffffffffffffffffffffffffffffffffffffff16815260200190815260200160002054905092915050565b600033905090565b600073ffffffffffffffffffffffffffffffffffffffff168373ffffffffffffffffffffffffffffffffffffffff16141561073b576040517f08c379a0000000000000000000000000000000000000000000000000000000008152600401610732906112d8565b60405180910390fd5b600073ffffffffffffffffffffffffffffffffffffffff168273ffffffffffffffffffffffffffffffffffffffff1614156107ab576040517f08c379a00000000000000000000000000000000000000000000000000000000081526004016107a290611238565b60405180910390fd5b80600160008573ffffffffffffffffffffffffffffffffffffffff1673ffffffffffffffffffffffffffffffffffffffff16815260200190815260200160002060008473ffffffffffffffffffffffffffffffffffffffff1673ffffffffffffffffffffffffffffffffffffffff168152602001908152602001600020819055508173ffffffffffffffffffffffffffffffffffffffff168373ffffffffffffffffffffffffffffffffffffffff167f8c5be1e5ebec7d5bd14f71427d1e84f3dd0314c0f7b2291e5b200ac8c7c3b925836040516108899190611338565b60405180910390a3505050565b60006108a2848461063c565b90507fffffffffffffffffffffffffffffffffffffffffffffffffffffffffffffffff811461091c578181101561090e576040517f08c379a000000000000000000000000000000000000000000000000000000000815260040161090590611258565b60405180910390fd5b61091b84848484036106cb565b5b50505050565b600073ffffffffffffffffffffffffffffffffffffffff168373ffffffffffffffffffffffffffffffffffffffff161415610992576040517f08c379a0000000000000000000000000000000000000000000000000000000008152600401610989906112b8565b60405180910390fd5b600073ffffffffffffffffffffffffffffffffffffffff168273ffffffffffffffffffffffffffffffffffffffff161415610a02576040517f08c379a00000000000000000000000000000000000000000000000000000000081526004016109f990611218565b60405180910390fd5b610a0d838383610d03565b60008060008573ffffffffffffffffffffffffffffffffffffffff1673ffffffffffffffffffffffffffffffffffffffff16815260200190815260200160002054905081811015610a93576040517f08c379a0000000000000000000000000000000000000000000000000000000008152600401610a8a90611278565b60405180910390fd5b8181036000808673ffffffffffffffffffffffffffffffffffffffff1673ffffffffffffffffffffffffffffffffffffffff16815260200190815260200160002081905550816000808573ffffffffffffffffffffffffffffffffffffffff1673ffffffffffffffffffffffffffffffffffffffff1681526020019081526020016000206000828254610b26919061138a565b925050819055508273ffffffffffffffffffffffffffffffffffffffff168473ffffffffffffffffffffffffffffffffffffffff167fddf252ad1be2c89b69c2b068fc378daa952ba7f163c4a11628f55a4df523b3ef84604051610b8a9190611338565b60405180910390a3610b9d848484610d08565b50505050565b600073ffffffffffffffffffffffffffffffffffffffff168273ffffffffffffffffffffffffffffffffffffffff161415610c13576040517f08c379a0000000000000000000000000000000000000000000000000000000008152600401610c0a90611318565b60405180910390fd5b610c1f60008383610d03565b8060026000828254610c31919061138a565b92505081905550806000808473ffffffffffffffffffffffffffffffffffffffff1673ffffffffffffffffffffffffffffffffffffffff1681526020019081526020016000206000828254610c86919061138a565b925050819055508173ffffffffffffffffffffffffffffffffffffffff16600073ffffffffffffffffffffffffffffffffffffffff167fddf252ad1be2c89b69c2b068fc378daa952ba7f163c4a11628f55a4df523b3ef83604051610ceb9190611338565b60405180910390a3610cff60008383610d08565b5050565b505050565b505050565b600081359050610d1c81611509565b92915050565b600081359050610d3181611520565b92915050565b600060208284031215610d4957600080fd5b6000610d5784828501610d0d565b91505092915050565b60008060408385031215610d7357600080fd5b6000610d8185828601610d0d565b9250506020610d9285828601610d0d565b9150509250929050565b600080600060608486031215610db157600080fd5b6000610dbf86828701610d0d565b9350506020610dd086828701610d0d565b9250506040610de186828701610d22565b9150509250925092565b60008060408385031215610dfe57600080fd5b6000610e0c85828601610d0d565b9250506020610e1d85828601610d22565b9150509250929050565b610e30816113e0565b82525050565b610e3f816113f2565b82525050565b6000610e508261136e565b610e5a8185611379565b9350610e6a818560208601611435565b610e73816114f8565b840191505092915050565b6000610e8b602383611379565b91507f45524332303a207472616e7366657220746f20746865207a65726f206164647260008301527f65737300000000000000000000000000000000000000000000000000000000006020830152604082019050919050565b6000610ef1602283611379565b91507f45524332303a20617070726f766520746f20746865207a65726f20616464726560008301527f73730000000000000000000000000000000000000000000000000000000000006020830152604082019050919050565b6000610f57601d83611379565b91507f45524332303a20696e73756666696369656e7420616c6c6f77616e63650000006000830152602082019050919050565b6000610f97602683611379565b91507f45524332303a207472616e7366657220616d6f756e742065786365656473206260008301527f616c616e636500000000000000000000000000000000000000000000000000006020830152604082019050919050565b6000610ffd601283611379565b91507f6d6574686f64206e6f7420616c6c6f77656400000000000000000000000000006000830152602082019050919050565b600061103d602583611379565b91507f45524332303a207472616e736665722066726f6d20746865207a65726f20616460008301527f64726573730000000000000000000000000000000000000000000000000000006020830152604082019050919050565b60006110a3602483611379565b91507f45524332303a20617070726f76652066726f6d20746865207a65726f2061646460008301527f72657373000000000000000000000000000000000000000000000000000000006020830152604082019050919050565b6000611109602583611379565b91507f45524332303a2064656372656173656420616c6c6f77616e63652062656c6f7760008301527f207a65726f0000000000000000000000000000000000000000000000000000006020830152604082019050919050565b600061116f601f83611379565b91507f45524332303a206d696e7420746f20746865207a65726f2061646472657373006000830152602082019050919050565b6111ab8161141e565b82525050565b6111ba81611428565b82525050565b60006020820190506111d56000830184610e27565b92915050565b60006020820190506111f06000830184610e36565b92915050565b600060208201905081810360008301526112108184610e45565b905092915050565b6000602082019050818103600083015261123181610e7e565b9050919050565b6000602082019050818103600083015261125181610ee4565b9050919050565b6000602082019050818103600083015261127181610f4a565b9050919050565b6000602082019050818103600083015261129181610f8a565b9050919050565b600060208201905081810360008301526112b181610ff0565b9050919050565b600060208201905081810360008301526112d181611030565b9050919050565b600060208201905081810360008301526112f181611096565b9050919050565b60006020820190508181036000830152611311816110fc565b9050919050565b6000602082019050818103600083015261133181611162565b9050919050565b600060208201905061134d60008301846111a2565b92915050565b600060208201905061136860008301846111b1565b92915050565b600081519050919050565b600082825260208201905092915050565b60006113958261141e565b91506113a08361141e565b9250827fffffffffffffffffffffffffffffffffffffffffffffffffffffffffffffffff038211156113d5576113d461149a565b5b828201905092915050565b60006113eb826113fe565b9050919050565b60008115159050919050565b600073ffffffffffffffffffffffffffffffffffffffff82169050919050565b6000819050919050565b600060ff82169050919050565b60005b83811015611453578082015181840152602081019050611438565b83811115611462576000848401525b50505050565b6000600282049050600182168061148057607f821691505b60208210811415611494576114936114c9565b5b50919050565b7f4e487b7100000000000000000000000000000000000000000000000000000000600052601160045260246000fd5b7f4e487b7100000000000000000000000000000000000000000000000000000000600052602260045260246000fd5b6000601f19601f8301169050919050565b611512816113e0565b811461151d57600080fd5b50565b6115298161141e565b811461153457600080fd5b5056fea26469706673582212208fa464b1e79c587ba0a975a831463c6abe552c79e14e491cc9f43ada8e130aac64736f6c63430008000033",
  "linkReferences": {},
  "deployedLinkReferences": {}
}