{
  "_format": "hh-sol-artifact-1",
  "contractName": "WETH9",
  "sourceName": "contracts/WETH9.sol",
  "abi": [
    {
      "inputs": [],
      "stateMutability": "nonpayable",
      "type": "constructor"
    },
    {
      "anonymous": false,
      "inputs": [
        {
          "indexed": true,
          "internalType": "address",
          "name": "src",
          "type": "address"
        },
        {
          "indexed": true,
          "internalType": "address",
          "name": "guy",
          "type": "address"
        },
        {
          "indexed": false,
          "internalType": "uint256",
          "name": "wad",
          "type": "uint256"
        }
      ],
      "name": "Approval",
      "type": "event"
    },
    {
      "anonymous": false,
      "inputs": [
        {
          "indexed": true,
          "internalType": "address",
          "name": "dst",
          "type": "address"
        },
        {
          "indexed": false,
          "internalType": "uint256",
          "name": "wad",
          "type": "uint256"
        }
      ],
      "name": "Deposit",
      "type": "event"
    },
    {
      "anonymous": false,
      "inputs": [
        {
          "indexed": true,
          "internalType": "address",
          "name": "src",
          "type": "address"
        },
        {
          "indexed": true,
          "internalType": "address",
          "name": "dst",
          "type": "address"
        },
        {
          "indexed": false,
          "internalType": "uint256",
          "name": "wad",
          "type": "uint256"
        }
      ],
      "name": "Transfer",
      "type": "event"
    },
    {
      "anonymous": false,
      "inputs": [
        {
          "indexed": true,
          "internalType": "address",
          "name": "src",
          "type": "address"
        },
        {
          "indexed": false,
          "internalType": "uint256",
          "name": "wad",
          "type": "uint256"
        }
      ],
      "name": "Withdrawal",
      "type": "event"
    },
    {
      "inputs": [
        {
          "internalType": "address",
          "name": "",
          "type": "address"
        },
        {
          "internalType": "address",
          "name": "",
          "type": "address"
        }
      ],
      "name": "allowance",
      "outputs": [
        {
          "internalType": "uint256",
          "name": "",
          "type": "uint256"
        }
      ],
      "stateMutability": "view",
      "type": "function"
    },
    {
      "inputs": [
        {
          "internalType": "address",
          "name": "guy",
          "type": "address"
        },
        {
          "internalType": "uint256",
          "name": "wad",
          "type": "uint256"
        }
      ],
      "name": "approve",
      "outputs": [
        {
          "internalType": "bool",
          "name": "",
          "type": "bool"
        }
      ],
      "stateMutability": "nonpayable",
      "type": "function"
    },
    {
      "inputs": [
        {
          "internalType": "address",
          "name": "",
          "type": "address"
        }
      ],
      "name": "balanceOf",
      "outputs": [
        {
          "internalType": "uint256",
          "name": "",
          "type": "uint256"
        }
      ],
      "stateMutability": "view",
      "type": "function"
    },
    {
      "inputs": [],
      "name": "decimals",
      "outputs": [
        {
          "internalType": "uint8",
          "name": "",
          "type": "uint8"
        }
      ],
      "stateMutability": "view",
      "type": "function"
    },
    {
      "inputs": [],
      "name": "deposit",
      "outputs": [],
      "stateMutability": "payable",
      "type": "function"
    },
    {
      "inputs": [
        {
          "internalType": "address",
          "name": "receiver",
          "type": "address"
        },
        {
          "internalType": "uint256",
          "name": "amount",
          "type": "uint256"
        }
      ],
      "name": "magicallyCreate",
      "outputs": [],
      "stateMutability": "nonpayable",
      "type": "function"
    },
    {
      "inputs": [],
      "name": "name",
      "outputs": [
        {
          "internalType": "string",
          "name": "",
          "type": "string"
        }
      ],
      "stateMutability": "view",
      "type": "function"
    },
    {
      "inputs": [],
      "name": "symbol",
      "outputs": [
        {
          "internalType": "string",
          "name": "",
          "type": "string"
        }
      ],
      "stateMutability": "view",
      "type": "function"
    },
    {
      "inputs": [],
      "name": "totalSupply",
      "outputs": [
        {
          "internalType": "uint256",
          "name": "",
          "type": "uint256"
        }
      ],
      "stateMutability": "view",
      "type": "function"
    },
    {
      "inputs": [
        {
          "internalType": "address",
          "name": "dst",
          "type": "address"
        },
        {
          "internalType": "uint256",
          "name": "wad",
          "type": "uint256"
        }
      ],
      "name": "transfer",
      "outputs": [
        {
          "internalType": "bool",
          "name": "",
          "type": "bool"
        }
      ],
      "stateMutability": "nonpayable",
      "type": "function"
    },
    {
      "inputs": [
        {
          "internalType": "address",
          "name": "src",
          "type": "address"
        },
        {
          "internalType": "address",
          "name": "dst",
          "type": "address"
        },
        {
          "internalType": "uint256",
          "name": "wad",
          "type": "uint256"
        }
      ],
      "name": "transferFrom",
      "outputs": [
        {
          "internalType": "bool",
          "name": "",
          "type": "bool"
        }
      ],
      "stateMutability": "nonpayable",
      "type": "function"
    },
    {
      "inputs": [
        {
          "internalType": "uint256",
          "name": "wad",
          "type": "uint256"
        }
      ],
      "name": "withdraw",
      "outputs": [],
      "stateMutability": "nonpayable",
      "type": "function"
    }
  ],
  "bytecode": "0x60806040526040518060400160405280600d81526020017f577261707065642045746865720000000000000000000000000000000000000081525060009080519060200190620000519291906200018a565b506040518060400160405280600481526020017f5745544800000000000000000000000000000000000000000000000000000000815250600190805190602001906200009f9291906200018a565b506012600260006101000a81548160ff021916908360ff160217905550348015620000c957600080fd5b50620000da620000e060201b60201c565b62000363565b34600360003373ffffffffffffffffffffffffffffffffffffffff1673ffffffffffffffffffffffffffffffffffffffff168152602001908152602001600020600082825462000131919062000268565b925050819055503373ffffffffffffffffffffffffffffffffffffffff167fe1fffcc4923d04b559f4d29a8bfc6cda04eb5b0d3c460751c2402c5c5cc9109c346040516200018091906200024b565b60405180910390a2565b8280546200019890620002cf565b90600052602060002090601f016020900481019282620001bc576000855562000208565b82601f10620001d757805160ff191683800117855562000208565b8280016001018555821562000208579182015b8281111562000207578251825591602001919060010190620001ea565b5b5090506200021791906200021b565b5090565b5b80821115620002365760008160009055506001016200021c565b5090565b6200024581620002c5565b82525050565b60006020820190506200026260008301846200023a565b92915050565b60006200027582620002c5565b91506200028283620002c5565b9250827fffffffffffffffffffffffffffffffffffffffffffffffffffffffffffffffff03821115620002ba57620002b962000305565b5b828201905092915050565b6000819050919050565b60006002820490506001821680620002e857607f821691505b60208210811415620002ff57620002fe62000334565b5b50919050565b7f4e487b7100000000000000000000000000000000000000000000000000000000600052601160045260246000fd5b7f4e487b7100000000000000000000000000000000000000000000000000000000600052602260045260246000fd5b610f9b80620003736000396000f3fe6080604052600436106100a75760003560e01c8063363725621161006457806336372562146101d057806370a08231146101f957806395d89b4114610236578063a9059cbb14610261578063d0e30db01461029e578063dd62ed3e146102a8576100a7565b806306fdde03146100ac578063095ea7b3146100d757806318160ddd1461011457806323b872dd1461013f5780632e1a7d4d1461017c578063313ce567146101a5575b600080fd5b3480156100b857600080fd5b506100c16102e5565b6040516100ce9190610d10565b60405180910390f35b3480156100e357600080fd5b506100fe60048036038101906100f99190610c2a565b610373565b60405161010b9190610cf5565b60405180910390f35b34801561012057600080fd5b50610129610465565b6040516101369190610d32565b60405180910390f35b34801561014b57600080fd5b5061016660048036038101906101619190610bdb565b61046d565b6040516101739190610cf5565b60405180910390f35b34801561018857600080fd5b506101a3600480360381019061019e9190610c66565b6107d1565b005b3480156101b157600080fd5b506101ba61090b565b6040516101c79190610d4d565b60405180910390f35b3480156101dc57600080fd5b506101f760048036038101906101f29190610c2a565b61091e565b005b34801561020557600080fd5b50610220600480360381019061021b9190610b76565b6109c6565b60405161022d9190610d32565b60405180910390f35b34801561024257600080fd5b5061024b6109de565b6040516102589190610d10565b60405180910390f35b34801561026d57600080fd5b5061028860048036038101906102839190610c2a565b610a6c565b6040516102959190610cf5565b60405180910390f35b6102a6610a81565b005b3480156102b457600080fd5b506102cf60048036038101906102ca9190610b9f565b610b27565b6040516102dc9190610d32565b60405180910390f35b600080546102f290610e96565b80601f016020809104026020016040519081016040528092919081815260200182805461031e90610e96565b801561036b5780601f106103405761010080835404028352916020019161036b565b820191906000526020600020905b81548152906001019060200180831161034e57829003601f168201915b505050505081565b600081600460003373ffffffffffffffffffffffffffffffffffffffff1673ffffffffffffffffffffffffffffffffffffffff16815260200190815260200160002060008573ffffffffffffffffffffffffffffffffffffffff1673ffffffffffffffffffffffffffffffffffffffff168152602001908152602001600020819055508273ffffffffffffffffffffffffffffffffffffffff163373ffffffffffffffffffffffffffffffffffffffff167f8c5be1e5ebec7d5bd14f71427d1e84f3dd0314c0f7b2291e5b200ac8c7c3b925846040516104539190610d32565b60405180910390a36001905092915050565b600047905090565b600081600360008673ffffffffffffffffffffffffffffffffffffffff1673ffffffffffffffffffffffffffffffffffffffff1681526020019081526020016000205410156104bb57600080fd5b3373ffffffffffffffffffffffffffffffffffffffff168473ffffffffffffffffffffffffffffffffffffffff161415801561059357507fffffffffffffffffffffffffffffffffffffffffffffffffffffffffffffffff600460008673ffffffffffffffffffffffffffffffffffffffff1673ffffffffffffffffffffffffffffffffffffffff16815260200190815260200160002060003373ffffffffffffffffffffffffffffffffffffffff1673ffffffffffffffffffffffffffffffffffffffff1681526020019081526020016000205414155b156106b55781600460008673ffffffffffffffffffffffffffffffffffffffff1673ffffffffffffffffffffffffffffffffffffffff16815260200190815260200160002060003373ffffffffffffffffffffffffffffffffffffffff1673ffffffffffffffffffffffffffffffffffffffff16815260200190815260200160002054101561062157600080fd5b81600460008673ffffffffffffffffffffffffffffffffffffffff1673ffffffffffffffffffffffffffffffffffffffff16815260200190815260200160002060003373ffffffffffffffffffffffffffffffffffffffff1673ffffffffffffffffffffffffffffffffffffffff16815260200190815260200160002060008282546106ad9190610dda565b925050819055505b81600360008673ffffffffffffffffffffffffffffffffffffffff1673ffffffffffffffffffffffffffffffffffffffff16815260200190815260200160002060008282546107049190610dda565b9250508190555081600360008573ffffffffffffffffffffffffffffffffffffffff1673ffffffffffffffffffffffffffffffffffffffff168152602001908152602001600020600082825461075a9190610d84565b925050819055508273ffffffffffffffffffffffffffffffffffffffff168473ffffffffffffffffffffffffffffffffffffffff167fddf252ad1be2c89b69c2b068fc378daa952ba7f163c4a11628f55a4df523b3ef846040516107be9190610d32565b60405180910390a3600190509392505050565b80600360003373ffffffffffffffffffffffffffffffffffffffff1673ffffffffffffffffffffffffffffffffffffffff16815260200190815260200160002054101561081d57600080fd5b80600360003373ffffffffffffffffffffffffffffffffffffffff1673ffffffffffffffffffffffffffffffffffffffff168152602001908152602001600020600082825461086c9190610dda565b925050819055503373ffffffffffffffffffffffffffffffffffffffff166108fc829081150290604051600060405180830381858888f193505050501580156108b9573d6000803e3d6000fd5b503373ffffffffffffffffffffffffffffffffffffffff167f7fcf532c15f0a6db0bd6d0e038bea71d30d808c7d98cb3bf7268a95bf5081b65826040516109009190610d32565b60405180910390a250565b600260009054906101000a900460ff1681565b80600360008473ffffffffffffffffffffffffffffffffffffffff1673ffffffffffffffffffffffffffffffffffffffff168152602001908152602001600020600082825461096d9190610d84565b925050819055508173ffffffffffffffffffffffffffffffffffffffff167fe1fffcc4923d04b559f4d29a8bfc6cda04eb5b0d3c460751c2402c5c5cc9109c826040516109ba9190610d32565b60405180910390a25050565b60036020528060005260406000206000915090505481565b600180546109eb90610e96565b80601f0160208091040260200160405190810160405280929190818152602001828054610a1790610e96565b8015610a645780601f10610a3957610100808354040283529160200191610a64565b820191906000526020600020905b815481529060010190602001808311610a4757829003601f168201915b505050505081565b6000610a7933848461046d565b905092915050565b34600360003373ffffffffffffffffffffffffffffffffffffffff1673ffffffffffffffffffffffffffffffffffffffff1681526020019081526020016000206000828254610ad09190610d84565b925050819055503373ffffffffffffffffffffffffffffffffffffffff167fe1fffcc4923d04b559f4d29a8bfc6cda04eb5b0d3c460751c2402c5c5cc9109c34604051610b1d9190610d32565b60405180910390a2565b6004602052816000526040600020602052806000526040600020600091509150505481565b600081359050610b5b81610f37565b92915050565b600081359050610b7081610f4e565b92915050565b600060208284031215610b8857600080fd5b6000610b9684828501610b4c565b91505092915050565b60008060408385031215610bb257600080fd5b6000610bc085828601610b4c565b9250506020610bd185828601610b4c565b9150509250929050565b600080600060608486031215610bf057600080fd5b6000610bfe86828701610b4c565b9350506020610c0f86828701610b4c565b9250506040610c2086828701610b61565b9150509250925092565b60008060408385031215610c3d57600080fd5b6000610c4b85828601610b4c565b9250506020610c5c85828601610b61565b9150509250929050565b600060208284031215610c7857600080fd5b6000610c8684828501610b61565b91505092915050565b610c9881610e20565b82525050565b6000610ca982610d68565b610cb38185610d73565b9350610cc3818560208601610e63565b610ccc81610f26565b840191505092915050565b610ce081610e4c565b82525050565b610cef81610e56565b82525050565b6000602082019050610d0a6000830184610c8f565b92915050565b60006020820190508181036000830152610d2a8184610c9e565b905092915050565b6000602082019050610d476000830184610cd7565b92915050565b6000602082019050610d626000830184610ce6565b92915050565b600081519050919050565b600082825260208201905092915050565b6000610d8f82610e4c565b9150610d9a83610e4c565b9250827fffffffffffffffffffffffffffffffffffffffffffffffffffffffffffffffff03821115610dcf57610dce610ec8565b5b828201905092915050565b6000610de582610e4c565b9150610df083610e4c565b925082821015610e0357610e02610ec8565b5b828203905092915050565b6000610e1982610e2c565b9050919050565b60008115159050919050565b600073ffffffffffffffffffffffffffffffffffffffff82169050919050565b6000819050919050565b600060ff82169050919050565b60005b83811015610e81578082015181840152602081019050610e66565b83811115610e90576000848401525b50505050565b60006002820490506001821680610eae57607f821691505b60208210811415610ec257610ec1610ef7565b5b50919050565b7f4e487b7100000000000000000000000000000000000000000000000000000000600052601160045260246000fd5b7f4e487b7100000000000000000000000000000000000000000000000000000000600052602260045260246000fd5b6000601f19601f8301169050919050565b610f4081610e0e565b8114610f4b57600080fd5b50565b610f5781610e4c565b8114610f6257600080fd5b5056fea2646970667358221220411583a7aa0ba5a37fe135be561b8f88cdd97f32a59c911bca2ccff10aaab8f664736f6c63430008000033",
  "linkReferences": {},
  "deployedLinkReferences": {}
}